:020000040800F2
:100000000050002031100008D1100008D110000865
:10001000D1100008D1100008D11000080000000025
:10002000000000000000000000000000D1100008E7
:10003000D110000800000000D11000081F090008BE
:10004000D1100008D1100008D1100008D11000080C
:10005000D1100008D1100008D1100008D1100008FC
:10006000D1100008D1100008D1100008D1100008EC
:10007000D1100008D1100008D5080008D1100008E0
:10008000D1100008D1100008D1100008D1100008CC
:10009000D1100008D1100008D1100008D1100008BC
:1000A000D1100008D1100008D110000891080008F4
:1000B000890800087D08000871080008130400087A
:1000C000170400080D04000811040008D1100008EE
:1000D000D11000089D080008D1100008D1100008B8
:1000E000D1100008D1100008D11000080000000055
:1000F0000000000000000000000000000000000000
:0C01000000000000000000005FF808F1A3
:10010C00F0B5B1F800E000234EFA03F2D50725D57F
:10011C008E784FEAD30CF40648BFCC7806F00F0269
:10012C0003F0070748BF2243BF0050F82C500F24A0
:10013C00BC4025EA0404BA402243282E40F82C2067
:10014C0005D1C46801229A4024EA020205E0482E37
:10015C0004D1C46801229A402243C2600133102B9F
:10016C00D2D1F0BD10B5064C206803681B689847C7
:10017C00206803681B6998470028F9D010BD00BFA0
:10018C002C0000202DE9F04F944E89B033689A8AE8
:10019C0092B20292029A12F4706F1EBF904A012121
:1001AC001171029A12F4E06F00F00A811A8B9A888E
:1001BC0022F480621204120C9A80029A950500F1C6
:1001CC00FF801A88940500F1FB801A88D00540F155
:1001DC00EC801A88D105FCD41A8892B242F40072D1
:1001EC001A801A889205FCD47D4B14205D79DFF8B7
:1001FC000C82012D28BF012500FB05F15D7108EB78
:10020C000102784B58F80110DC69316011691789CB
:10021C00B2F80AA0214354684AEA0709D9610222BC
:10022C00C4F8109003A98DF80E0020460193ADF888
:10023C000C908DF80F20FFF763FF019BCDF8008029
:10024C0098464FF0080BA268174203D10A2000F021
:10025C0055FBF8E70A20676100F050FB27610A2084
:10026C0000F04CFBBBF1010BEDD1C4F814A00A203B
:10027C0000F044FB67610A2000F040FB27610A2074
:10028C0000F03CFB0222C4F810A0204603A98DF814
:10029C000F201C228DF80E20ADF80C90FFF730FFCC
:1002AC003468514A03A89442D8F810200BBF42F48A
:1002BC00001242F48002C8F81020C8F810200BBFBE
:1002CC00D8F81020D8F8102022F4001222F4800262
:1002DC00C8F81020A38823F440731B041B0CA380C4
:1002EC0023889BB243F001032380A78800F032F9E6
:1002FC0005993E4B27F03F07B1FBF3F33F043F0C4E
:10030C001F43BFB2A7802288002722F001021204EB
:10031C00120C2280364A03A8B1FBF2F100298AB2F2
:10032C0008BF012242F400414FF4967253434FF43C
:10033C007A7293FBF2F301339BB22384A18323885B
:10034C00009A9BB243F001032380238823F481633A
:10035C0023F002031B041B0C23804FF480432381E6
:10036C00142303FB05256B7B01248DF80C308DF8D1
:10037C000D708DF80E708DF80F4000F029FA2B7B64
:10038C009DF80F208DF80C308DF80D701AB103A864
:10039C0000F01EFA14E05A0903F01F039C4002F10E
:1003AC002003144A42F823400AE01A8892B242F41D
:1003BC0000721A809A8822F440721204120C9A80ED
:1003CC003268938A23F470631B041B0C93820A4BD0
:1003DC0000221A7009B0BDE8F08F00BF9C0200200B
:1003EC002C000020001002400054004040420F003E
:1003FC00804F120000E100E0B4020020D41000088D
:10040C0000F08EBABEE600F08BBABBE6B0F8400046
:10041C0080B27047808F80B27047008F80B2704777
:10042C00808E80B2704738B5044600250A4A208A6F
:10043C002A445388A189034289B201D00B4203D1CB
:10044C000835202DF2D138BDDB439BB223822046E8
:10045C0053689847F4E700BF14110008016B03467A
:10046C00C26810B5406941B1196C541A013918BFF2
:10047C000A46005D1A64C0B210BD196A405C0131B5
:10048C00B1FBF2F402FB1412C0B21A6210BD436B42
:10049C0013B190F844007047836A406A1B1A5842A3
:1004AC0058417047036B13B15B68006C01E0036A41
:1004BC00C069181A18BF01207047836A8169426BA2
:1004CC001944D160416A994297BF0169CB1ACB1A82
:1004DC00536096BF0023536083624FF0000380F893
:1004EC004430136888BF816243F001031360704786
:1004FC00426A10B58469A154426A04690132B2FBA4
:10050C00F4F104FB11224262426B2AB11368DB073F
:10051C0007D4BDE81040D0E7826CD36843F0800369
:10052C00D36010BD704710B50849094B0C689B6827
:10053C000A689442F8D14A684FF47A704243496889
:10054C00D31AB3FBF1F300FB043010BD48020020BA
:10055C0010E000E01F4A10B553681F4903F00C036C
:10056C00042B03D0082B03D01C4B12E00B6810E0BB
:10057C0053685468C3F38343E40303F1020301D4C7
:10058C00174C05E0546814F4003F0C6818BF64085D
:10059C00634303605368C3F303130B441C79036870
:1005AC00E34043605468C4F302240C44247923FAD6
:1005BC0004F484605468C4F3C2240C442479E340EA
:1005CC00C3605268C2F3813211440A7DB3FBF2F36B
:1005DC00036110BD001002401000002000127A00D0
:1005EC0000093D0070B50E460446038ACA889BB2CA
:1005FC0023F440531343038282890989B38892B24E
:10060C000B43718922F4B0520B4322F00C021343BA
:10061C009BB28381838AB2899BB223F4407386B0E8
:10062C001343838201A8FFF795FF039B049D174A90
:10063C003168944218BF1D46A38919226A431BB224
:10064C00002BB4BF4D008D00B2FBF5F56426B5FB55
:10065C00F6F00001010906FB1153A28912B2002A1F
:10066C00ADBF1A01D90032313232B5BFB1FBF6F24F
:10067C00B2FBF6F302F0070203F00F03B4BF104312
:10068C00184380B2208106B070BD00BF0038014015
:10069C0030B5002385B0ADF80A30ADF80430ADF8B4
:1006AC000630ADF80830ADF80C3003790446DA07A3
:1006BC0044BF0422ADF80A209B0748BFBDF80A309E
:1006CC000D46009148BF43F00803806C694648BF53
:1006DC00ADF80A30FFF786FFA56005B030BD4FF6C8
:1006EC00FE73026813400360002303604360836061
:1006FC00C360294B984201D1284A27E0284B9842E5
:10070C0001D1264A2AE0274B984201D1234A2DE0F9
:10071C00254B984201D1214A30E0244B984201D11B
:10072C001E4A33E0224B984204D11C4A536843F4CE
:10073C0070032EE01F4B984204D1184A536843F0C3
:10074C00706326E01C4B984204D11C4A536843F05A
:10075C000F031EE01A4B984204D1184A536843F019
:10076C00F00316E0174B984204D1144A536843F433
:10077C0070630EE0144B984204D1104A536843F452
:10078C00704306E0114B984204D10C4A536843F471
:10079C0070235360704700BF080002400000024005
:1007AC001C0002403000024044000240580002404D
:1007BC006C00024080000240080402400004024029
:1007CC001C0402403004024044040240580402401D
:1007DC000F4BD9684378C943C1F30221C1F104021C
:1007EC0003FA02F20F23CB4081780B4013430949E3
:1007FC0002781B01DBB20A4482F800330378012231
:10080C00580903F01F0302FA03F341F82030704734
:10081C0000ED00E000E100E00F4B1A6842F001022D
:10082C001A6059680D4A0A405A601A6822F084729C
:10083C0022F480321A601A6822F480221A605A68F4
:10084C0022F4FE025A604FF41F029A60044B4FF0E0
:10085C0000629A60704700BF001002400000FFF871
:10086C0000ED00E001480321DDE500BF0008004079
:10087C0001480221D7E500BF000400404FF0804042
:10088C000121D0E501480021CDE500BF002C01403D
:10089C000C4B196D0A88120612D51A6BD86A824253
:1008AC000AD0186A805C013288809869B2FBF0F13A
:1008BC0000FB11221A637047CB6823F08003CB60D6
:1008CC00704700BF480200200A4B4FF400525A6098
:1008DC004FF6FE730848C26B11680B401360C26A76
:1008EC00036B9A4201D00830E7E5012380F84C30C5
:1008FC00704700BF000002404802002038B5044693
:10090C00FFF711FE0546FFF70EFE401BA042FAD37F
:10091C0038BD024A13680133136070474802002047
:10092C00934B70B55A6D908A80B2C1B2CE0738D550
:10093C00118821F400610904090C1180118889B215
:10094C0041F480611180002183F8581093F85910FC
:10095C00C1B193F85A1019B993F85B10FF2911D152
:10096C00012183F85A1093F85C10022901BF1188F9
:10097C0089B241F40061118093F85D1041F00101DE
:10098C00118208E193F85D1001F0FE01118293F8D9
:10099C005B20FF2A00F0FF80754AFF2182F8581077
:1009AC00F9E08D0744D5BFF35F8F93F85C00C0B2BC
:1009BC00012816D193F8591099B193F85A1081B1B6
:1009CC00118821F480610904090C1180BFF35F8F39
:1009DC00118B118883F85E0089B241F4007111808B
:1009EC0021E0118BBFF35F8F93F85C006049022804
:1009FC000CD191F8590048B191F85A1031B11188C5
:100A0C0021F480610904090C1180BEE093F85C00AC
:100A1C005749032807D191F8590020B191F85A1081
:100A2C00002940F0B280918889B241F48061B1E034
:100A3C004C0762D5012183F85E1093F859100029F8
:100A4C003CD093F85A10002938D093F85C101088D9
:100A5C00022993F858101ED920F480600004000C71
:100A6C001080158A1C6EC8B2EDB249B2655411885B
:100A7C0089B241F400711180596D821C83F85820A1
:100A8C000A8A0130D2B240B222548A8892B242F41D
:100A9C0080628A802CE080B240F400701080148A4E
:100AAC001D6EC8B2E4B249B26C54128A411C49B2F0
:100ABC00D2B203306A5483F8580019E093F85A10F4
:100ACC002B4811B990F8641051B1118889B241F4D6
:100ADC000071118093F85820013283F8582007E0F8
:100AEC00118889B241F480711180012280F85A205A
:100AFC00596D0A88D205FCD44DE001F0400101F09B
:100B0C00FF0409B393F85800168A1D6EC4B2611C19
:100B1C0040B2F6B22E54C9B293F85C5083F8581018
:100B2C0049B2C81C854201BF908820F48060000443
:100B3C00000C08BF908093F85C208A422BD10C4AA1
:100B4C00023482F8584026E0060624D593F8581053
:100B5C0048B2451C0ED09C6E0131205CC9B210828B
:100B6C0093F85C0083F8581049B2884213D10CE01A
:100B7C004802002093F85B1083F85840118293F8D8
:100B8C00591011B993F85C1029B9918821F480613E
:100B9C000904090C918093F85C1093F95800013109
:100BAC008842094A0FD1002182F85A1092F85E103F
:100BBC0031B1516D8A8822F440721204120C8A8071
:100BCC00002283F86C2070BD4802002080B5002301
:100BDC0090B00093544C019302934FF4E0130393A1
:100BEC00236843F480332360A36943F01003A361AB
:100BFC00236803F400330193009B01330093019BA2
:100C0C001BB9009BB3F5A06FF2D12368464913F4CE
:100C1C00003301D0022315E00A6842F001020A6099
:100C2C000093236803F002030193009B01330093AC
:100C3C00019B1BB9009BB3F5A06FF2D123689B07F6
:100C4C0039D501230293394B39491A6842F0100205
:100C5C001A601A6822F003021A601A6842F0020243
:100C6C001A606368636063686360636843F48063FD
:100C7C006360304B1A68043B22F070425A602E4A73
:100C8C000A60626822F47C1262605A6842F0004288
:100C9C005A60DA6822F40042DA609B681F0449BF8C
:100CAC00264B4FF4E0130B604FF480130393029B1D
:100CBC00012B01D108E0FEE7022B09D1039A6368EE
:100CCC00134343F4803302E0636843F460136360BE
:100CDC00236843F0807323602268134B9601FBD585
:100CEC005A6822F003025A605A6842F002025A60B3
:100CFC0063680D4803F00C03082BF9D14268104BC4
:100D0C0002F00C02042A03D0082A03D00A4A21E07C
:100D1C000A681FE042684568C2F38342ED0302F1A2
:100D2C00020211D4074914E00010024000200240D6
:100D3C00100000200410014000127A00001BB700C4
:100D4C002800002000093D0040680968800348BF66
:100D5C0049084A431A6062689F49C2F303128A5CCD
:100D6C001D689E4ED5401D60042202238DF82F3045
:100D7C008DF83730ADF83C208DF83F30984A994BC0
:100D8C0010274FF008088DF82E70ADF834708DF8E0
:100D9C0036708DF83E700A96ADF82C800C960E9637
:100DAC00DA60E3690DEB070143F00703E361A36924
:100DBC004FF0000943F4944343F01D03A3616369AE
:100DCC00894843F001036361636A43F08073636293
:100DDC004FF6FF738DF81290ADF81030FFF790F9C5
:100DEC000DEB07013046FFF78BF90DEB07017F4840
:100DFC00FFF786F97E4A536843F000735360C6F8D8
:100E0C00108037614F460DF12808391D57F808003E
:100E1C0041440837FFF774F9182FF4D105A8FFF7F0
:100E2C0099FB059B734AF021B3FBF2F3724A00263F
:100E3C0013604FF47A73B5FBF3F56A4A6F4B013DBF
:100E4C005D6082F8231007226D4D9E601A606D4B19
:100E5C004FF4E1392B606C4BC5F808906B6103F5CE
:100E6C008073AB614FF48073EB602B61674B5E4812
:100E7C002B63143B6B63A36905A943F48043A36103
:100E8C0002238DF817304FF40073ADF814308DF841
:100E9C001670FFF735F94FF4806305A9ADF81430DF
:100EAC00514848238DF81630FFF72AF90E23584F76
:100EBC008DF82830404601238DF829308DF82A30E2
:100ECC008DF82B30FFF784FC03232B7138460C2351
:100EDC004146ADF83230AF642E62EE61AE626E62A6
:100EEC00EE62C5F80890CDF82890ADF82C60ADF8FE
:100EFC002E60ADF83060ADF83460FFF773FBBB8942
:100F0C00286B9BB243F40053BB81424CF0B1D5F833
:100F1C000C806E69FFF7E3FB2B6B1A6822F4FF421F
:100F2C0022F0700242F485521A60C3F804809C606F
:100F3C00DE601A6842F001021A60BA8A92B242F07C
:100F4C004002BA825B689BB22B6405E00646324ACB
:100F5C00136843F020031360686B294F00B3D7F874
:100F6C001080FFF7BCFB7B6B1A6822F4FF4222F067
:100F7C00700242F4845242F010021A60C3F80480EA
:100F8C009C60DE601A6842F002021A6000225A600D
:100F9C005A601F4A938A9BB243F08003938204E009
:100FAC001D4A136843F0800313601C4B1C4A1D60E0
:100FBC00C3F808220022C3F80C2240F2F514074AA9
:100FCC00D36883F00803D360013CF6D04FF47A70F9
:100FDC00FFF794FCF8E700BF00000020000C014074
:100FEC000005FA0500ED00E000080140001001408A
:100FFC000000014040420F004C02002010E000E0D5
:10100C0050020020FC100008320000205800024062
:10101C0000380140043801400C3801402C000020FD
:10102C007101000819481A49026800608A4217D0F9
:10103C00002103E0174B5B58435004311648174B03
:10104C0042189A42F6D3164A02E0002342F8043BB7
:10105C00144B9A42F9D3FFF7DFFBFFF7B7FDFEE71E
:10106C00114E124830601248016821F07061016025
:10107C00410201600F4C182020600F490F48086096
:10108C000F48D0F800D0406800470000F04F002017
:10109C00EFBEADDE34110008000000202C00002053
:1010AC002C000020B802002018100240090000009B
:1010BC0004000140140C0140000C01404434434432
:1010CC0000F0FF1FFEE7000000540040000C014040
:1010DC00400080001F20000000002000005800404D
:1010EC00000C014000040008212200000000400018
:1010FC00FD040008B1040008690400089D060008FE
:10110C009B04000831050008000002002D040008B3
:10111C00040004002704000808000800210400084B
:08112C000C001000190400087A
:101134000000000000000000010203040607080983
:1011440000127A00000000000102030401020304FB
:0C115400060708090204060800A24A046D
:0400000508000000EF
:00000001FF
