:020000040800F2
:10000000005000208D1B0008291C0008291C000836
:10001000291C0008291C0008291C000800000000F9
:10002000000000000000000000000000291C000883
:10003000291C000800000000291C000871020008AB
:10004000291C0008291C0008291C0008291C00087C
:10005000291C0008291C0008291C0008291C00086C
:10006000291C0008291C0008291C0008291C00085C
:10007000291C0008291C0008390D0008291C00084B
:10008000291C0008291C0008291C0008291C00083C
:10009000291C0008291C0008291C0008291C00082C
:1000A000291C0008291C0008291C0008F50C000860
:1000B000ED0C0008E10C0008D50C00083501000823
:1000C0003D0100083101000839010008291C000821
:1000D000291C0008010D0008291C0008291C000823
:1000E000291C0008291C0008291C00080000000029
:1000F0000000000000000000000000000000000000
:0C01000000000000000000005FF808F1A3
:1001100010B5064C206803681B6898472068036880
:100120001B6998470028F9D010BD00BF2C000020A3
:1001300000F094B900F092B900F0B2BA00F0B0BA91
:100140002DE9F043B1F800E000234FF00F0C012639
:100150004EFA03F2D20729D58D78DF0815F0100F7B
:1001600018BF91F8039003F0070805F00F024FEA5B
:10017000880850F8274018BF42EA09020CFA08F92B
:1001800024EA090402FA08F22243282D40F8272025
:1001900005D1C26806FA03F422EA040205E0482DFC
:1001A00004D1C26806FA03F42243C2600133102B63
:1001B000CED1BDE8F08300BF704730B5002385B0D5
:1001C000ADF80A30ADF80430ADF80630ADF80830BF
:1001D000ADF80C3003790446DA0744BF0422ADF8C9
:1001E0000A209B0748BFBDF80A300D46009148BF62
:1001F00043F008036946806C48BFADF80A3000F050
:1002000077FCA56005B030BD836A8169426B1944F3
:10021000D160416A8B4229BF0169CB1ACB1A536066
:100220002ABF0023536083624FF0000380F84430FC
:10023000136838BF816243F001031360704730B523
:10024000094A0A4D1168AB681068074C8142F9D120
:1002500062684FF47A7042436468D31AB3FBF4F3D4
:1002600000FB013030BD00BF4402002010E000E080
:10027000024A136801331360704700BF4402002034
:10028000012828BF01202DE9F04F0646142000FB6D
:1002900006F3DFF8C48189B008EB030258F8034085
:1002A000674B11699C601E73664B1789DD69B2F854
:1002B0000AA02943556847EA0A09D9610222C5F80C
:1002C000109003A98DF80E0028460193ADF80C900C
:1002D0008DF80F20FFF734FF019BCDF80080984682
:1002E0004FF0080BAA683A4202D100F08BFBF9E705
:1002F0006F6100F087FB2F6100F084FBBBF1010B05
:10030000F0D1C5F814A000F07DFB6F6100F07AFB1E
:100310002F6100F077FB0222C5F810A003A9284640
:100320008DF80F201C228DF80E20ADF80C90FFF7F1
:1003300007FF454A03A89442D8F810200BBF42F4A7
:10034000001242F48002C8F81020C8F810200BBF39
:10035000D8F81020D8F8102022F4001222F48002DD
:10036000C8F81020A38823F440731B041B0CA3803F
:1003700023889BB243F001032380A58800F070FB23
:100380000599324B25F03F05B1FBF3F32D042D0CFD
:100390001D43ADB2A5802288002522F0010212047F
:1003A000120C22802A4A03A8B1FBF2F100298AB27A
:1003B00008BF012242F400414FF4967253434FF4B8
:1003C0007A7293FBF2F301339BB22384A1832388D7
:1003D000009A9BB243F001032380238823F48163B6
:1003E00023F002031B041B0C23804FF48043238162
:1003F000142303FB0626737B01248DF80C308DF843
:100400000D508DF80E508DF80F4000F005FB337B3A
:100410009DF80F208DF80C308DF80D501AB103A8FF
:1004200000F0FAFA08E05A090A4903F01F0304FA37
:1004300003F3203241F8223009B0BDE8F08F00BF4D
:1004400044020020001002400054004040420F00CF
:10045000804F120000E100E0441C00088F4B70B593
:100460009A68908A80B2C1B2CC072ED5118821F447
:1004700000610904090C1180118889B241F480617E
:10048000118000215973997B99B1D97B11B9197CDD
:10049000FF290ED10121D973597C022901BF11888E
:1004A00089B241F400611180997C41F0010111820F
:1004B000DEE0997C01F0FE0111821A7CFF2A00F037
:1004C000D780764AFF215173D2E08E073AD5BFF329
:1004D0005F8F587CC0B2012813D1997B89B1D97B39
:1004E00079B1118821F480610904090C1180BFF3EE
:1004F0005F8F118B1188D87489B241F4007111801B
:100500001BE0118BBFF35F8F587C644902280AD12E
:10051000887B40B1C97B31B1118821F48061090425
:10052000090C11809EE0587C5C49032805D1887B2A
:1005300018B1C97B002940F09580918889B241F4B7
:10054000806194E04D0756D50121D974997B00292B
:1005500037D0D97B002934D0597C93F90D0002297A
:1005600011881DD921F480610904090C1180148AB5
:100570005D69E4B22C54C1B210885C6980B240F469
:100580000070108098688A1C5A73028A0131D2B2B6
:1005900049B26254828892B242F48062828025E03D
:1005A00089B241F400711180148A5D69E4B22C545F
:1005B000C1B2128A481C40B2D2B203312A545973D4
:1005C00014E0D97B354809B9017E41B1118889B25F
:1005D00041F4007111805A7B01325A7306E0118890
:1005E00089B241F4807111800122C27399680A882E
:1005F000D405FCD43CE001F0400101F0FF04D1B18E
:1006000093F90D60118A5D69C9B2F4B2A955601CF5
:1006100040B25D7CC11C8D42587305D1918821F494
:1006200080610904090C91805A7C904220D11B4AB8
:10063000023454731CE000061AD593F90D00411CD6
:1006400009D0DC69411C205C49B21082587C597386
:1006500088420DD106E0197C5C731182997B09B93F
:10066000597C29B9918821F480610904090C918091
:10067000597C93F90D0001318842084A0DD10021BF
:10068000D173D17C31B191688A8822F4407212040E
:10069000120C8A80002283F8202070BD44020020C2
:1006A00013B5234CA3689A8A92B20192019A12F46C
:1006B000706F1CBF012284F82120019A12F4E06FB0
:1006C00029D01A8B9A8822F480621204120C9A8024
:1006D000019A91051FD41A8892051CD41A88D00556
:1006E0000ED51A88D105FCD41A8892B242F4007251
:1006F0001A801A889205FCD4207BFFF7C1FD0AE01E
:100700001A8892B242F400721A809A8822F44072D7
:100710001204120C9A80A268938A23F470631B045B
:100720001B0C9382002384F8203002B010BD00BF60
:1007300044020020054A08B5538C107B01339BB25C
:100740005384FFF79DFD002008BD00BF4402002038
:10075000B0F8400080B27047808F80B27047008F41
:1007600080B27047808E80B270472DE9F041069DBF
:10077000002B06460F462B4614BF4FF030084FF0B3
:10078000200813F8011B09B9144603E0002A08DD0C
:10079000013AF6E7002C04DD41463046B847013CFB
:1007A000F8E715F8011B11B13046B847F9E7BDE885
:1007B000F081F0B50124B0FBF4F58D4201D34C4338
:1007C000F9E70026CCB1B0FBF4F504FB1500B4FB4F
:1007D000F1F41EB9002D01DC002CF3D1092D03F139
:1007E000010E04DD002A14BF3727572700E0302709
:1007F0003D441D7001367346E4E71C70F0BD70B5D2
:1008000004460B4E00257119208A4B88A2890342A9
:1008100092B201D0134203D10835202DF3D170BD1F
:10082000DB439BB2238220464B689847F4E700BF26
:100830006C1C0008016B0346C26810B5406941B1E9
:10084000196C541A013918BF0A46005D1A64C0B207
:1008500010BD196A405C0131B1FBF2F402FB1412C5
:10086000C0B21A6210BD436B13B190F844007047D8
:10087000836A406A1B1A584258417047036B1BB188
:100880005A68036C981A02E0036AC069181A18BF04
:1008900001207047426A10B48469A154426A046915
:1008A0000132B2FBF4F104FB11224262426B2AB125
:1008B0001368DB0707D410BCFFF7A6BC826CD368B3
:1008C00043F08003D36010BC70470FB42DE9F04FA4
:1008D00087B011AC494B4A4D02940DF10C0993E8D5
:1008E000C0002978002900F08380252901D0013536
:1008F0007BE069784FF0000830290CBFA9780235F9
:10090000A1F1300312BF4FF0000A03354FF0010A86
:10091000092B19D8A1F13003DAB2092A05D80A2225
:1009200002FB083815F8011BF4E7A1F16103052B60
:1009300002D8A1F1570305E0A1F14103052B03D82B
:10094000A1F137030A2BEADD63293BD006D825291C
:100950004BD0582922D000294AD0C2E7732938D079
:1009600011D86429BDD1206804F1040B0028BFBF51
:100970002D238DF80C3040420DF10D03A8BF4B46DE
:1009800000220A2112E0752902D0782906D0A8E7B2
:1009900004F1040B4B4600220A2106E04B4658396D
:1009A0004A424A4104F1040B10212068FFF701FF7D
:1009B000CDF800905346424639463046FFF7D5FE03
:1009C0005C468EE7217804F104083046B847444677
:1009D00087E7236804F1040A00934246002339465E
:1009E0003046FFF7C2FE54467BE73046B84778E70B
:1009F00007B0BDE8F04F04B0704700BF68020020A8
:100A00008C1C000810B5FFF71AFC0446FFF717FC12
:100A1000001B0928FAD910BD0F4BDA684378D2437E
:100A2000C2F30222C2F1040103FA01F10F23D34001
:100A3000827813400B43027808491B01DBB20A4459
:100A400082F8003303780122580903F01F0302FAE9
:100A500003F341F82030704700ED00E000E100E0D2
:100A60001F4A10B553681F4903F00C03042B03D031
:100A7000082B03D01C4B12E00B6810E0536854683D
:100A8000C3F38343E40303F1020301D4174C05E0ED
:100A9000546814F4003F0C6818BF64086343036093
:100AA0005368C3F303130B441C790368E3404360AA
:100AB0005468C4F302240C44247923FA04F48460B7
:100AC0005468C4F3C2240C442479E340C3605268E0
:100AD000C2F3813211440A7DB3FBF2F3036110BD0E
:100AE000001002401400002000127A0000093D00AE
:100AF00070B50E460446038ACA889BB223F440535D
:100B00001343038282898988338992B20B437189A6
:100B100022F4B0520B4322F00C0213439BB28381A8
:100B2000838AB2899BB223F4407386B013438382D5
:100B300001A8FFF795FF174A039B049D3168944273
:100B400018BF1D4619226A43A389642613F4004F77
:100B500014BF4D008D00B2FBF5F5B5FBF6F0A28990
:100B600000010109120406FB115307D5D9003231E7
:100B7000B1FBF6F202F00702104306E01A0132322E
:100B8000B2FBF6F303F00F03184380B2208106B0E6
:100B900070BD00BF003801404FF6FE73026813407D
:100BA00003600023036043608360C360284B984266
:100BB00001D1284A27E0284B984201D1254A2AE052
:100BC000264B984201D1234A2DE0254B984201D172
:100BD000204A30E0234B984201D11E4A33E0224B99
:100BE000984204D11B4A536843F470032EE01F4B14
:100BF000984204D1174A536843F0706326E01C4BB7
:100C0000984204D11B4A536843F00F031EE01A4B6D
:100C1000984204D1174A536843F0F00316E0174B8B
:100C2000984204D1134A536843F470630EE0144BA6
:100C3000984204D10F4A536843F4704306E0114BC5
:100C4000984204D10B4A536843F4702353607047B1
:100C500008000240000002401C0002403000024038
:100C600044000240580002406C00024080000240F4
:100C700008040240000402401C0402403004024008
:100C800044040240580402400F4B1A6842F001022B
:100C90001A6059680D4A0A405A601A6822F0847234
:100CA00022F480321A601A6822F480221A605A688C
:100CB00022F4FE025A604FF41F029A60044B4FF078
:100CC00000629A60704700BF001002400000FFF809
:100CD00000ED00E00321014891E500BF000800405D
:100CE000022101488BE500BF0004004001214FF0C4
:100CF000804084E50021014881E500BF002C0140CF
:100D00000C4B196D0A88120612D51A6BD86A8242EA
:100D10000AD0186A805C013288809869B2FBF0F1D1
:100D200000FB11221A637047CB6823F08003CB606D
:100D3000704700BF680200200A4B4FF400525A600F
:100D40004FF6FE730848C26B11680B401360C26A0D
:100D5000036B9A4202D00830FFF756BA012380F89D
:100D60004C307047000002406802002081F00041D2
:100D700002E000BF83F0004330B54FEA41044FEA80
:100D8000430594EA050F08BF90EA020F1FBF54EA1B
:100D9000000C55EA020C7FEA645C7FEA655C00F0B7
:100DA000E2804FEA5454D4EB5555B8BF6D420CDD88
:100DB0002C4480EA020281EA030382EA000083EA0B
:100DC000010180EA020281EA0303362D88BF30BDAB
:100DD00011F0004F4FEA01314FF4801C4CEA113101
:100DE00002D0404261EB410113F0004F4FEA033360
:100DF0004CEA133302D0524263EB430394EA050FEB
:100E000000F0A780A4F10104D5F1200E0DDB02FA59
:100E10000EFC22FA05F2801841F1000103FA0EF2ED
:100E2000801843FA05F359410EE0A5F120050EF1B3
:100E3000200E012A03FA0EFC28BF4CF0020C43FAE4
:100E400005F3C01851EBE37101F0004507D54FF0F1
:100E5000000EDCF1000C7EEB00006EEB0101B1F541
:100E6000801F1BD3B1F5001F0CD349085FEA300087
:100E70004FEA3C0C04F101044FEA445212F5800F92
:100E800080F09A80BCF1004F08BF5FEA500C50F12F
:100E9000000041EB045141EA050130BD5FEA4C0C12
:100EA000404141EB010111F4801FA4F10104E9D19B
:100EB00091F0000F04BF01460020B1FA81F308BF92
:100EC0002033A3F10B03B3F120020CDA0C3208DD5E
:100ED00002F1140CC2F10C0201FA0CF021FA02F139
:100EE0000CE002F11402D8BFC2F1200C01FA02F1A9
:100EF00020FA0CFCDCBF41EA0C019040E41AA2BFCE
:100F000001EB0451294330BD6FEA04041F3C1CDA95
:100F10000C340EDC04F11404C4F1200220FA04F0B5
:100F200001FA02F340EA030021FA04F345EA03015F
:100F300030BDC4F10C04C4F1200220FA02F001FA21
:100F400004F340EA0300294630BD21FA04F02946A3
:100F500030BD94F0000F83F4801306BF81F480113C
:100F60000134013D4EE77FEA645C18BF7FEA655CAF
:100F700029D094EA050F08BF90EA020F05D054EA81
:100F8000000C04BF1946104630BD91EA030F1EBF86
:100F90000021002030BD5FEA545C05D1400049418A
:100FA00028BF41F0004130BD14F580043CBF01F57D
:100FB000801130BD01F0004545F0FE4141F4700163
:100FC0004FF0000030BD7FEA645C1ABF194610463E
:100FD0007FEA655C1CBF0B46024650EA013406BF3F
:100FE00052EA033591EA030F41F4002130BD00BFFE
:100FF00090F0000F04BF0021704730B54FF48064BB
:1010000004F132044FF000054FF0000150E700BF3B
:1010100090F0000F04BF0021704730B54FF480649A
:1010200004F1320410F0004548BF40424FF0000187
:101030003EE700BF42004FEAE2014FEA31014FEACA
:1010400002701FBF12F07F4393F07F4F81F0605119
:10105000704792F0000F14BF93F07F4F704730B588
:101060004FF4607401F0004521F0004120E700BF1B
:1010700050EA010208BF704730B54FF000050AE0A2
:1010800050EA010208BF704730B511F0004502D5A3
:10109000404261EB41014FF4806404F132045FEAA5
:1010A000915C3FF4DCAE4FF003025FEADC0C18BF4A
:1010B00003325FEADC0C18BF033202EBDC02C2F140
:1010C000200300FA03FC20FA02F001FA03FE40EAD2
:1010D0000E0021FA02F11444C1E600BF70B54FF0D2
:1010E000FF0C4CF4E06C1CEA11541DBF1CEA1355B4
:1010F00094EA0C0F95EA0C0F00F0DEF82C4481EA1C
:10110000030621EA4C5123EA4C5350EA013518BF3B
:1011100052EA033541F4801143F4801338D0A0FB28
:1011200002CE4FF00005E1FB02E506F00042E0FBD5
:1011300003E54FF00006E1FB03569CF0000F18BFDB
:101140004EF0010EA4F1FF04B6F5007F64F5407483
:1011500004D25FEA4E0E6D4146EB060642EAC62116
:1011600041EA55514FEAC52040EA5E504FEACE2E83
:10117000B4F1FD0C88BFBCF5E06F1ED8BEF1004F86
:1011800008BF5FEA500E50F1000041EB045170BD02
:1011900006F0004646EA010140EA020081EA030146
:1011A000B4EB5C04C2BFD4EB0C0541EA045170BD42
:1011B00041F480114FF0000E013C00F3AB8014F1BC
:1011C000360FDEBF002001F0004170BDC4F1000405
:1011D000203C35DA0C341BDC04F11404C4F1200586
:1011E00000FA05F320FA04F001FA05F240EA0200E1
:1011F00001F0004221F0004110EBD37021FA04F617
:1012000042EB06015EEA430E08BF20EAD37070BDD0
:10121000C4F10C04C4F1200500FA04F320FA05F02F
:1012200001FA04F240EA020001F0004110EBD37031
:1012300041F100015EEA430E08BF20EAD37070BDA1
:10124000C4F1200500FA05F24EEA020E20FA04F37A
:1012500001FA05F243EA020321FA04F001F0004129
:1012600021FA04F220EA020000EBD3705EEA430E9A
:1012700008BF20EAD37070BD94F0000F0FD101F0C9
:101280000046400041EB010111F4801F08BF013C02
:10129000F7D041EA060195F0000F18BF704703F040
:1012A0000046520043EB030313F4801F08BF013DC7
:1012B000F7D043EA0603704794EA0C0F0CEA135583
:1012C00018BF95EA0C0F0CD050EA410618BF52EA3D
:1012D0004306D1D181EA030101F000414FF0000043
:1012E00070BD50EA410606BF1046194652EA430651
:1012F00019D094EA0C0F02D150EA013613D195EAC5
:101300000C0F05D152EA03361CBF104619460AD10C
:1013100081EA030101F0004141F0FE4141F4700116
:101320004FF0000070BD41F0FE4141F4780170BD06
:1013300070B54FF0FF0C4CF4E06C1CEA11541DBF6B
:101340001CEA135594EA0C0F95EA0C0F00F0A7F86D
:10135000A4EB050481EA030E52EA03354FEA01319A
:1013600000F088804FEA03334FF0805545EA1313AD
:1013700043EA12634FEA022245EA111545EA106575
:101380004FEA00260EF000419D4208BF964244F10C
:10139000FD0404F5407402D25B084FEA3202B61A2B
:1013A00065EB03055B084FEA32024FF480104FF4FF
:1013B000002CB6EB020E75EB030E22BFB61A754673
:1013C00040EA0C005B084FEA3202B6EB020E75EB06
:1013D000030E22BFB61A754640EA5C005B084FEA6E
:1013E0003202B6EB020E75EB030E22BFB61A75463B
:1013F00040EA9C005B084FEA3202B6EB020E75EB46
:10140000030E22BFB61A754640EADC0055EA060E06
:1014100018D04FEA051545EA16754FEA06164FEA49
:10142000C30343EA52734FEAC2025FEA1C1CC0D1F5
:1014300011F4801F0BD141EA00014FF000004FF082
:10144000004CB6E711F4801F04BF01430020B4F143
:10145000FD0C88BFBCF5E06F3FF6AFAEB5EB030CFB
:1014600004BFB6EB020C5FEA500C50F1000041EBF8
:10147000045170BD0EF0004E4EEA113114EB5C04C5
:10148000C2BFD4EB0C0541EA045170BD41F4801198
:101490004FF0000E013C90E645EA060E8DE60CEAA0
:1014A000135594EA0C0F08BF95EA0C0F3FF43BAFBD
:1014B00094EA0C0F0AD150EA01347FF434AF95EA74
:1014C0000C0F7FF425AF104619462CE795EA0C0F58
:1014D00006D152EA03353FF4FDAE1046194622E725
:1014E00050EA410618BF52EA43067FF4C5AE50EAFF
:1014F00041047FF40DAF52EA43057FF4EBAE12E7EF
:101500004FEA410212F5001215D211D56FF478732B
:10151000B3EB625212D94FEAC12343F0004343EACE
:10152000505311F0004F23FA02F018BF40427047A9
:101530004FF00000704750EA013005D111F0004033
:1015400008BF6FF0004070474FF00000704700BFC9
:1015500080B5002390B00193544C029303934FF451
:10156000E0130493236843F480332360A36943F0BA
:101570001003A361236803F400330293019B01333A
:101580000193029B1BB9019BB3F5A06FF2D12368B5
:10159000464913F4003301D0022315E00A6842F0F3
:1015A00001020A600193236803F002030293019B86
:1015B00001330193029B1BB9019BB3F5A06FF2D1DC
:1015C00023689B0739D501230393394B39491A689E
:1015D00042F010021A601A6822F003021A601A68B8
:1015E00042F002021A606368636063686360636864
:1015F00043F480636360304B1A68043B22F070420E
:101600005A602E4A0A60626822F47C1262605A684C
:1016100042F000425A60DA6822F40042DA609B68C5
:101620001F0449BF264B4FF4E0130B604FF48013A7
:101630000493039B012B01D108E0FEE7022B09D1A3
:10164000049A6368134343F4803302E0636843F40D
:1016500060136360236843F0807323602268134B38
:101660009601FBD55A6822F003025A605A6842F08C
:1016700002025A6063680D4803F00C03082BF9D18D
:101680004368104A03F00C03042B03D0082B03D04B
:101690000A4B21E00B681FE043684568C3F38343AE
:1016A000ED0303F1020311D4074914E000100240D6
:1016B00000200240140000200410014000127A00B3
:1016C000001BB7000000002000093D0040680968C9
:1016D000800348BF49084B43136063681568C3F330
:1016E000031313441B79BA4EDD4015600223042214
:1016F0008DF82F308DF83730ADF83C208DF83F3025
:10170000B44AB54B10274FF00808ADF82C800A9664
:101710008DF82E700C96ADF834708DF836700E96EC
:101720008DF83E70DA60E369694643F00703E361D0
:10173000A369AA4843F4944343F01D03A36163697A
:101740004FF0000943F001036361636A43F0807363
:1017500063624FF6FF738DF80290ADF80030FEF72C
:10176000EFFC69463046FEF7EBFC69469C48FEF705
:10177000E7FC9C4A536843F000735360C6F810803E
:1017800037610DF1280809F1040159F808004144B6
:1017900009F10809FEF7D4FCB9F1180FF3D105AE31
:1017A0003046FFF75DF9059B8F4AF021B3FBF2F35A
:1017B0008E4A002713604FF47A73B5FBF3F5864A1F
:1017C0008B4B013D5D6082F823100722894D9F609D
:1017D0001A60894B4FF4E13A2B60884BC5F808A09A
:1017E0006B6103F58073AB614FF48073EB602B6129
:1017F000834B31462B63143B6B63A369774843F4F7
:101800008043A36102238DF817304FF40073ADF8C5
:1018100014308DF81690FEF793FC4FF48063314638
:10182000ADF814306D4848238DF81630FEF788FC6B
:101830000E23DFF8D8918DF82830404601238DF82B
:1018400029308DF82A308DF82B30FFF7E5F8032387
:101850002B7148460C234146ADF83230C5F848900C
:101860002F62EF61AF626F62EF62C5F808A0CDF83A
:1018700028A0ADF82C70ADF82E70ADF83070ADF832
:101880003470FFF735F9B9F80C30286B9BB243F48C
:101890000053A9F80C305B4C00B3D5F80CA06F696D
:1018A000FFF77AF92B6B1A6822F4FF4222F07002DC
:1018B00042F485521A60C3F804A09C60DF601A6885
:1018C00042F001021A60B9F8142092B242F04002CC
:1018D000A9F814205B689BB22B6405E007464A4ACE
:1018E000136843F020031360686BDFF8089108B3B6
:1018F000D9F810A0FFF750F9D9F834301A6822F45B
:10190000FF4222F0700242F4845242F010021A6048
:10191000C3F804A09C60DF601A6842F002021A60FB
:1019200000225A605A60394A938A9BB243F080037E
:10193000938204E0344A136843F080031360344C0C
:10194000012025602546FEF79BFC324A324B1A6087
:10195000324B00221A60FEF772FCD4F80432C01A2F
:101960000028C0F2C280FEF76AFC95F8083200F544
:101970001C501030C5F80402002B77D151228DF88D
:101980001420274AE0211170264A274913700122AA
:101990000A70264926480B7026490E6026490E60BB
:1019A00026490A7026490A700370264B1B68002BD3
:1019B00000F09B809A88970550D41A88D20548D4A5
:1019C00047F230521F88BF053ED5013AFAD192E066
:1019D000000C01400005FA0500ED00E000080140A0
:1019E000001001400000014040420F00480200206A
:1019F00010E000E0700200202C1C000830000020E5
:101A000058000240043801400C38014000380140C1
:101A10002C000020110100086C0200206802002048
:101A200056020020540200205C02002052020020D6
:101A300065020020600200205802002055020020AC
:101A4000640200204C0200201A8892B242F4807294
:101A50001A809A8892B242F440729A8047F23053C8
:101A60000A78002A6CD0013BFAD144E0012B39D12D
:101A70003B4AE02111703B4A8F2111703A49002204
:101A80000A703A4902200B703949C1F8008039497F
:101A9000C1F8008038490870384939480B70394B13
:101AA00002701B680BB39A88970514D41A88D20564
:101AB0000CD447F230521F88BF0502D5013AFAD143
:101AC00042E01A8892B242F480721A809A8892B2E6
:101AD00042F440729A8047F230530A788AB1013B4F
:101AE000FBD131E0002385F80832D4F80C122648E7
:101AF000FEF7EBFE2FE7FEF71DFE0028F5D00123D1
:101B00001BE0007880F001000028EED09DF829301D
:101B10009DF8280003EB0020FFF77AFA0CA3D3E925
:101B20000023FFF7DBFA0CA3D3E90023FFF724F926
:101B3000FFF7E6FC0223C4F80C0284F80832D4E76D
:101B4000007880F00100D8E7FEF7F4FDDCE700BF85
:101B5000894160E5D022F13F6DE7FBA9F1D2084051
:101B600056020020540200205C0200205202002095
:101B7000580200206002002055020020640200206C
:101B8000650200204C0200208C1C000819481A49EC
:101B9000026800608A4217D0002103E0174B5B58AF
:101BA000435004311648174B42189A42F6D3164A4E
:101BB00002E0002342F8043B144B9A42F9D3FFF7AA
:101BC00063F8FFF7C5FCFEE7114E092030601148AD
:101BD000016821F070610160410201600E4C182023
:101BE00020600E490E4808600E48D0F800D04068CA
:101BF00000470000F04F0020EFBEADDE901C000853
:101C0000000000202C0000202C000020BC0200203E
:101C10001810024004000140140C0140000C014067
:101C20004434434400F0FF1FFEE70000950800081D
:101C30007D08000835080008BB0100086708000897
:101C4000B901000800540040000C01404000800031
:101C50001F2000000000200000580040000C014040
:101C600000040008212200000000400000000200E3
:101C700065070008040004005F070008080008006A
:101C8000590700080C0010005107000825640A00DD
:101C900000A24A040000000000000000010203044A
:101CA0000607080900127A00000000000102030480
:0C1CB000010203040607080902040608EC
:0400000508000000EF
:00000001FF
