:020000040800F2
:1000000000500020111C0008BD1C0008BD1C000889
:10001000BD1C0008BD1C0008BD1C0008000000003D
:10002000000000000000000000000000BD1C0008EF
:10003000BD1C000800000000BD1C0008090E0008DF
:10004000BD1C0008BD1C0008BD1C0008BD1C00082C
:10005000BD1C0008BD1C0008BD1C0008BD1C00081C
:10006000BD1C0008BD1C0008BD1C0008BD1C00080C
:10007000BD1C0008BD1C0008D50D0008BD1C0008F3
:10008000BD1C0008BD1C0008BD1C0008BD1C0008EC
:10009000BD1C0008BD1C0008BD1C0008BD1C0008DC
:1000A000BD1C0008BD1C0008BD1C00088F0D000809
:1000B000850D0008790D00086D0D0008250E00085B
:1000C0001D0E0008210E0008190E0008BD1C0008B6
:1000D000BD1C00089D0D0008BD1C0008BD1C0008CB
:1000E000BD1C0008BD1C0008BD1C0008000000006D
:1000F0000000000000000000000000000000000000
:0C01000000000000000000005FF808F1A3
:10011000B0F8400080B27047808F80B27047008F87
:1001200080B27047808E80B270472DE9F041069C06
:10013000002B06460F460CBF4FF020084FF030084A
:10014000234613F8011B09B9154603E0002AFBDD1D
:10015000013AF6E7002D04DD30464146B847013D3F
:10016000F8E714F8011B11B13046B847F9E7BDE8CC
:10017000F081F0B50124B0FBF4F58D4201D34C437E
:10018000F9E70026DCB1B0FBF4F504FB1500B4FB85
:10019000F1F41EB9002D01DC002CF3D1092D03F17F
:1001A00001075FFA85FC04DD002A0CBF57253725BF
:1001B00000E0302565441D7001363B46E2E71C70C7
:1001C000F0BD016B0346C26810B5406941B1196CBE
:1001D000541A005D013918BF0A46C0B21A6410BD36
:1001E000196A405C0131B1FBF2F402FB1412C0B297
:1001F0001A6210BD436B13B190F844007047826AD5
:10020000436AD31A584258417047036B13B15A6876
:10021000036C01E0026AC369D01A18BF012070475D
:10022000704710B5054C206803681B689847206824
:1002300003681B6998470028F9D010BD900300207F
:10024000F0B5884C884A23689D8AADB2E9B211F0B6
:10025000010F32D0198821F400610904090C1980BA
:10026000198889B241F480611980002111707F4999
:1002700008787F49A8B1507818B97E480078FF28DF
:100280000FD1012050707C480078022804D11888D2
:1002900080B240F400601880097841F001011982B1
:1002A00002E1097801F0FE011982724B1B78FF2BE5
:1002B00000F0FA80FF231370F6E08F073CD5BFF300
:1002C0005F8F6D490878C0B2012814D1674D2D7831
:1002D0008DB155787DB1198821F480610904090C2C
:1002E0001980BFF35F8F198B1988907089B241F420
:1002F000007119801BE0188BBFF35F8F087802280C
:100300000BD15A48007840B1507830B1198821F4A7
:1003100080610904090C1980C0E00978032906D11D
:100320005249097819B15178002940F0B78099886D
:1003300089B241F48061B6E04E075BD5012191702E
:100340004A49097800293AD05178002937D04A49DA
:1003500010780978494D022919881ED921F4806145
:100360000904090C19801F8A2E68C1B2FFB240B27D
:100370003754188880B240F4007018808B1C1370BA
:10038000236828681D8A013149B2EDB24554998825
:1003900089B241F48061998027E089B241F400710B
:1003A00019801E8A2D68C1B2F6B240B22E541B8A43
:1003B000481C40B2DBB203312B54117015E0517868
:1003C00011B92F49097841B1198889B241F40071F6
:1003D000198013780133137007E0198889B241F44A
:1003E00080711980204B0121597021680B88D80534
:1003F000FCD459E001F0400101F0FF061E48F1B1C4
:100400001E49B3F810C00F6811785FFA8CFCCDB2AA
:100410006E1C49B2F6B207F801C01670077876B2C2
:10042000F11C8F4205D1998821F480610904090CDF
:1004300099800378B34237D10235157034E029062C
:1004400032D511784DB26F1C1ED00E4E0131366878
:10045000C9B2755D1170EDB21D82007849B2884253
:1004600022D11BE0B40300202C000020A4030020B4
:10047000A1030020A2030020B0030020AC03002051
:10048000A3030020A8030020134916700978C9B2FD
:1004900019821249097809B9017829B9998821F492
:1004A00080610904090C99800D4B92F900101878AD
:1004B0000C4B421C91420DD100225A709B7833B1F3
:1004C0002268938823F440731B041B0C9380064B13
:1004D00000221A70F0BD00BFA2030020A403002078
:1004E000B00300202C000020B10300200FB42DE940
:1004F000F04F544B89B01F68534B13ADD3F80080B5
:10050000524E04953178002900F09780252902D0B9
:10051000013638468FE07478302C03D002364FF025
:10052000000A03E0B4784FF0010A0336A4F1300367
:10053000092B4FF0000919D8A4F13003DAB2092AC7
:1005400005D80A2202FB093916F8014BF4E7A4F199
:100550006103052B02D8A4F1570305E0A4F1410380
:10056000052B03D8A4F137030A2BEADD632C50D006
:1005700006D8252C5DD0582C30D0002C5DD0C1E79A
:10058000732C4BD002D8642C0DD0BBE7752C02D055
:10059000782C23D0B6E705AC05F1040B28680A21B6
:1005A000002223460FE0286805F1040B002805AC63
:1005B00006DA2D238DF8143040420DF1150300E0CA
:1005C00023460A210022FFF7D4FD00943846414615
:1005D0004A465346FFF7A9FD5D4693E7B4F1580339
:1005E0005A420DF1140B05F1040C28685A411021F0
:1005F0005B46CDF80CC0FFF7BCFDCDF800B0384627
:1006000041464A465346FFF790FDDDF80CC065466B
:1006100078E7384629782C1DC04708E02B68384613
:10062000009341464A4600232C1DFFF77EFD2546D8
:1006300068E738462146C04764E709B0BDE8F04F97
:1006400004B070479803002094030020201D000888
:1006500070B5104C064604EB811400250E4A308A12
:100660002A445388B189034289B20CD00B420AD084
:10067000DB439BB23382304653689847A3680146F8
:100680000BB1207B98470835202D04F11004E5D1EB
:1006900070BD00BF30000020C01C00081F4B10B50B
:1006A0005A6802F00C02042A03D0082A04D01C4A1B
:1006B00014E01C4A126811E05A685968C2F3834278
:1006C000C90302F1020201D4174906E0596811F486
:1006D000003F1449096818BF49084A430260596835
:1006E000124AC1F30311545C0168E14041605C6847
:1006F000C4F30224145D21FA04F484605C68C4F33A
:10070000C224145DE140C1605B68C3F381331A44C5
:10071000137CB1FBF3F1016110BD00BF001002407A
:1007200000127A001400002000093D0000000020A3
:10073000038ACA889BB223F44053134330B5038223
:100740000D4682890989AB8892B20B43698922F4EC
:10075000B0520B4322F00C0213439BB28381838A75
:10076000AA899BB223F4407387B013430446838263
:1007700001A8FFF793FF1749049A039B8C4208BF17
:100780001346A289192112B25943002A2A684FF050
:100790006403B4BF52009200B1FBF2F1B1FBF3F27B
:1007A0001201100903FB1011A08900B2002806DA1B
:1007B000C9003231B1FBF3F303F0070305E009018F
:1007C0003231B1FBF3F303F00F031A4392B22281EB
:1007D00007B030BD0038014030B5002385B0ADF81A
:1007E0000A30ADF80430ADF80630ADF80830ADF899
:1007F0000C3003790446DA0744BF0422ADF80A201E
:100800009B070D46009105D5BDF80A3043F008035B
:10081000ADF80A30A06C6946FFF78AFFA56005B005
:1008200030BD826A8169436B1144D960416A91424B
:1008300003D98A1A5A60816204E001698A1A5A60EF
:1008400000228262002280F844201A6842F00102ED
:100850001A607047426A10B58469A154416A0269FE
:100860000131B1FBF2F402FB14124262426B2AB175
:100870001368DB0707D4BDE81040D2E7836CDA6861
:1008800042F08002DA6010BD02684FF6FE7313403A
:1008900003600023036043608360C3602A4B984277
:1008A00022D02A4B984229D0294B984230D0294B4C
:1008B000984237D0284B98423ED0284B984206D1D8
:1008C00053F8682C42F4700243F8682C7047244BAC
:1008D000984206D153F87C2C42F0706243F87C2C8D
:1008E0007047204B984206D153F8042C42F00F0277
:1008F00043F8042C70471C4B984206D153F8182C2F
:1009000042F0F00243F8182C7047184B984206D179
:1009100053F82C2C42F4706243F82C2C7047144B83
:10092000984206D153F8402C42F4704243F8402CD0
:100930007047104B984205D153F8542C42F4702262
:1009400043F8542C704700BF080002401C000240CE
:100950003000024044000240580002406C00024057
:1009600080000240080402401C040240300402409F
:10097000440402405804024010B5104B4178DB6833
:100980008478DB43C3F30223C3F1040201FA02F2C9
:100990000F21D94021401143094B02780901C9B206
:1009A0001A4482F8001302780120510902F01F0254
:1009B00000FA02F243F8212010BD00BF00ED00E074
:1009C00000E100E010B5094A094913688C68126813
:1009D0009342F8D1074A106811684FF47A72504375
:1009E000001BB0FBF1F002FB030010BD88010020EA
:1009F00010E000E08C01002010B5FFF7E3FF044693
:100A0000FFF7E0FF001B0928FAD910BD2DE9F041DE
:100A10000F88002347FA03F2D2072BD58A7803F018
:100A2000070512F0100F18BF91F803C002F00F066F
:100A300018BF46EA0C06AD004FF00F0C0CFA05FC8F
:100A400006FA05F5DC0850F82480282A28EA0C0C60
:100A500045EA0C0540F8245005D101229A40C468AB
:100A600024EA020205E0482A04D101229A40C4681F
:100A70002243C2600133102BCCD1BDE8F0812DE9B7
:100A8000F04FDFF8D4A1012834BF06460126142117
:100A900001FB06A2DFF8ACB1136A106BCBF8003093
:100AA000664B158D83F80461654BB2F82A80DC69CA
:100AB00089B02043546A48EA0507D86102222761B9
:100AC00020468DF80E1003A90193ADF80C708DF837
:100AD0000F20FFF79BFF019B4FF008099B46A26880
:100AE000154202D1FFF788FFF9E76561FFF784FF40
:100AF0002561FFF781FFB9F10109F0D1C4F8148035
:100B0000FFF77AFF6561FFF777FF2561FFF774FF55
:100B10000222C4F8108020468DF80F2003A91C2261
:100B20008DF80E20ADF80C70FFF770FF454B464A6C
:100B30001C689442DBF8102008D142F40012CBF874
:100B40001020DBF8102022F4001207E042F48002AB
:100B5000CBF81020DBF8102022F48002CBF8102014
:100B6000A38803A823F440731B041B0CA3802388D1
:100B70009BB243F001032380A588FFF78FFD25F08A
:100B80003F050599314A2D04B1FBF2F22D0C1543B6
:100B9000ADB2A5802388012523F001031B041B0CA3
:100BA00023802B4B03A8B1FBF3F34FF496714A4318
:100BB0009BB24FF47A71002B92FBF1F208BF012334
:100BC000013292B243F400432284A38323889BB270
:100BD00043F001032380238823F4816323F002037D
:100BE0001B041B0C23804FF480432381142303FB3D
:100BF00006A696F82D3000248DF80C308DF80D40A7
:100C00008DF80E408DF80F50FFF7B6FE96F82C3099
:100C10009DF80F208DF80C308DF80D401AB103A807
:100C2000FFF7AAFE07E0590903F01F039D40094A98
:100C3000203142F8215009B0BDE8F08F2C0000208F
:100C400000100240B40300200054004040420F0056
:100C5000804F120000E100E0C01C000808B5064B00
:100C6000B3F8062193F80401013292B2A3F80621E9
:100C7000FFF705FF002008BD2C000020244A13B513
:100C800013681446998A89B20191019911F4706F21
:100C900002D0204A01211170019A12F4E06F2BD08A
:100CA0001A8B9A8822F480621204120C9A80019A9C
:100CB000910521D41A8892051ED41A88D00510D522
:100CC0001A88D105FCD41A8892B242F400721A80B4
:100CD0001A889205FCD4104B93F80401FFF7CFFE5D
:100CE0000AE01A8892B242F400721A809A8822F4BA
:100CF00040721204120C9A802268938A23F4706363
:100D00001B041B0C9382054B00221A7002B010BD0D
:100D1000B4030020B20300202C000020B103002007
:100D20000F4B1A6842F001021A6059680D4A0A40D6
:100D30005A601A6822F0847222F480321A601A68AB
:100D400022F480221A605A6822F4FE025A604FF49C
:100D50001F029A60044B4FF000629A60704700BF18
:100D6000001002400000FFF800ED00E00148032100
:100D7000FFF76EBC0008004001480221FFF768BC85
:100D8000000400404FF080400121FFF761BC0248A1
:100D90000021FFF75DBC00BF002C01400C4B9A6C9A
:100DA0001188090613D5996A586A81420BD098694F
:100DB000405C0131C0B290801A69B1FBF2F002FBD5
:100DC000101199627047D36823F08003D360704795
:100DD0003C0100200A480B4B4FF400525A60426B12
:100DE0004FF6FE7311680B401360426A836A9A42A1
:100DF00001D0FFF716BD012380F84430704700BFD3
:100E00003C01002000000240024BDA6C0132DA643F
:100E1000704700BF3C010020FFF730BFFFF72EBF37
:100E2000FFF70EBAFFF70CBA81F0004102E000BFF5
:100E300083F0004330B54FEA41044FEA430594EA9A
:100E4000050F08BF90EA020F1FBF54EA000C55EAD5
:100E5000020C7FEA645C7FEA655C00F0E2804FEAA6
:100E60005454D4EB5555B8BF6D420CDD2C4480EA88
:100E7000020281EA030382EA000083EA010180EAB8
:100E8000020281EA0303362D88BF30BD11F0004F06
:100E90004FEA01314FF4801C4CEA113102D040423C
:100EA00061EB410113F0004F4FEA03334CEA133377
:100EB00002D0524263EB430394EA050F00F0A7808F
:100EC000A4F10104D5F1200E0DDB02FA0EFC22FA8A
:100ED00005F2801841F1000103FA0EF2801843FA7E
:100EE00005F359410EE0A5F120050EF1200E012A6F
:100EF00003FA0EFC28BF4CF0020C43FA05F3C018AD
:100F000051EBE37101F0004507D54FF0000EDCF125
:100F1000000C7EEB00006EEB0101B1F5801F1BD3CE
:100F2000B1F5001F0CD349085FEA30004FEA3C0CD2
:100F300004F101044FEA445212F5800F80F09A80C8
:100F4000BCF1004F08BF5FEA500C50F1000041EBCC
:100F5000045141EA050130BD5FEA4C0C404141EBD0
:100F6000010111F4801FA4F10104E9D191F0000FF7
:100F700004BF01460020B1FA81F308BF2033A3F17A
:100F80000B03B3F120020CDA0C3208DD02F1140C71
:100F9000C2F10C0201FA0CF021FA02F10CE002F1AC
:100FA0001402D8BFC2F1200C01FA02F120FA0CFCA5
:100FB000DCBF41EA0C019040E41AA2BF01EB0451EE
:100FC000294330BD6FEA04041F3C1CDA0C340EDCEC
:100FD00004F11404C4F1200220FA04F001FA02F32F
:100FE00040EA030021FA04F345EA030130BDC4F1ED
:100FF0000C04C4F1200220FA02F001FA04F340EAE2
:101000000300294630BD21FA04F0294630BD94F092
:10101000000F83F4801306BF81F480110134013D79
:101020004EE77FEA645C18BF7FEA655C29D094EAEA
:10103000050F08BF90EA020F05D054EA000C04BF68
:101040001946104630BD91EA030F1EBF0021002053
:1010500030BD5FEA545C05D14000494128BF41F0F2
:10106000004130BD14F580043CBF01F5801130BD56
:1010700001F0004545F0FE4141F470014FF00000E1
:1010800030BD7FEA645C1ABF194610467FEA655C92
:101090001CBF0B46024650EA013406BF52EA033534
:1010A00091EA030F41F4002130BD00BF90F0000F22
:1010B00004BF0021704730B54FF4806404F132045E
:1010C0004FF000054FF0000150E700BF90F0000F17
:1010D00004BF0021704730B54FF4806404F132043E
:1010E00010F0004548BF40424FF000013EE700BF0E
:1010F00042004FEAE2014FEA31014FEA02701FBF9E
:1011000012F07F4393F07F4F81F06051704792F06F
:10111000000F14BF93F07F4F704730B54FF46074E9
:1011200001F0004521F0004120E700BF50EA010234
:1011300008BF704730B54FF000050AE050EA0102E1
:1011400008BF704730B511F0004502D5404261EB51
:1011500041014FF4806404F132045FEA915C3FF492
:10116000DCAE4FF003025FEADC0C18BF03325FEA2B
:10117000DC0C18BF033202EBDC02C2F1200300FAE0
:1011800003FC20FA02F001FA03FE40EA0E0021FA05
:1011900002F11444C1E600BF70B54FF0FF0C4CF4EF
:1011A000E06C1CEA11541DBF1CEA135594EA0C0FA5
:1011B00095EA0C0F00F0DEF82C4481EA030621EAE0
:1011C0004C5123EA4C5350EA013518BF52EA03351B
:1011D00041F4801143F4801338D0A0FB02CE4FF0CD
:1011E0000005E1FB02E506F00042E0FB03E54FF0FD
:1011F0000006E1FB03569CF0000F18BF4EF0010EF5
:10120000A4F1FF04B6F5007F64F5407404D25FEAF0
:101210004E0E6D4146EB060642EAC62141EA5551A3
:101220004FEAC52040EA5E504FEACE2EB4F1FD0CE5
:1012300088BFBCF5E06F1ED8BEF1004F08BF5FEA63
:10124000500E50F1000041EB045170BD06F0004615
:1012500046EA010140EA020081EA0301B4EB5C04C2
:10126000C2BFD4EB0C0541EA045170BD41F48011BA
:101270004FF0000E013C00F3AB8014F1360FDEBFDF
:10128000002001F0004170BDC4F10004203C35DABB
:101290000C341BDC04F11404C4F1200500FA05F33E
:1012A00020FA04F001FA05F240EA020001F00042DF
:1012B00021F0004110EBD37021FA04F642EB060155
:1012C0005EEA430E08BF20EAD37070BDC4F10C047F
:1012D000C4F1200500FA04F320FA05F001FA04F243
:1012E00040EA020001F0004110EBD37041F100012F
:1012F0005EEA430E08BF20EAD37070BDC4F120053A
:1013000000FA05F24EEA020E20FA04F301FA05F2A1
:1013100043EA020321FA04F001F0004121FA04F249
:1013200020EA020000EBD3705EEA430E08BF20EA19
:10133000D37070BD94F0000F0FD101F00046400053
:1013400041EB010111F4801F08BF013CF7D041EAD5
:10135000060195F0000F18BF704703F000465200D9
:1013600043EB030313F4801F08BF013DF7D043EAAA
:101370000603704794EA0C0F0CEA135518BF95EA60
:101380000C0F0CD050EA410618BF52EA4306D1D1E7
:1013900081EA030101F000414FF0000070BD50EA06
:1013A000410606BF1046194652EA430619D094EA90
:1013B0000C0F02D150EA013613D195EA0C0F05D17A
:1013C00052EA03361CBF104619460AD181EA0301CE
:1013D00001F0004141F0FE4141F470014FF0000086
:1013E00070BD41F0FE4141F4780170BD70B54FF021
:1013F000FF0C4CF4E06C1CEA11541DBF1CEA1355A1
:1014000094EA0C0F95EA0C0F00F0A7F8A4EB050482
:1014100081EA030E52EA03354FEA013100F0888079
:101420004FEA03334FF0805545EA131343EA126342
:101430004FEA022245EA111545EA10654FEA0026F7
:101440000EF000419D4208BF964244F1FD0404F5B0
:10145000407402D25B084FEA3202B61A65EB03050C
:101460005B084FEA32024FF480104FF4002CB6EBC9
:10147000020E75EB030E22BFB61A754640EA0C0049
:101480005B084FEA3202B6EB020E75EB030E22BF89
:10149000B61A754640EA5C005B084FEA3202B6EBCA
:1014A000020E75EB030E22BFB61A754640EA9C0089
:1014B0005B084FEA3202B6EB020E75EB030E22BF59
:1014C000B61A754640EADC0055EA060E18D04FEA17
:1014D000051545EA16754FEA06164FEAC30343EAB7
:1014E00052734FEAC2025FEA1C1CC0D111F4801F84
:1014F0000BD141EA00014FF000004FF0004CB6E77D
:1015000011F4801F04BF01430020B4F1FD0C88BF1B
:10151000BCF5E06F3FF6AFAEB5EB030C04BFB6EB26
:10152000020C5FEA500C50F1000041EB045170BD19
:101530000EF0004E4EEA113114EB5C04C2BFD4EB46
:101540000C0541EA045170BD41F480114FF0000ECA
:10155000013C90E645EA060E8DE60CEA135594EA46
:101560000C0F08BF95EA0C0F3FF43BAF94EA0C0F49
:101570000AD150EA01347FF434AF95EA0C0F7FF4BE
:1015800025AF104619462CE795EA0C0F06D152EA12
:1015900003353FF4FDAE1046194622E750EA4106F6
:1015A00018BF52EA43067FF4C5AE50EA41047FF407
:1015B0000DAF52EA43057FF4EBAE12E74FEA41026A
:1015C00012F5001215D211D56FF47873B3EB625295
:1015D00012D94FEAC12343F0004343EA505311F0BC
:1015E000004F23FA02F018BF404270474FF000004E
:1015F000704750EA013005D111F0004008BF6FF08C
:10160000004070474FF00000704700BF000000002E
:1016100080B5002390B00093554C019302934FF492
:10162000E0130393236843F480332360A36943F0FA
:101630001003A361236803F400330193009B01337B
:101640000093019B1BB9009BB3F5A06FF2D12268F8
:10165000474B12F4003201D0022315E0196841F023
:10166000010119600092236803F002030193009BBB
:1016700001330093019B1BB9009BB3F5A06FF2D11E
:1016800023689B0739D5012302933A4B3A491A68DC
:1016900042F010021A601A6822F003021A601A68F7
:1016A00042F002021A6063686360636863606368A3
:1016B00043F480636360314B1A68043B22F070424C
:1016C0005A602F4A1160616821F47C116160596889
:1016D00041F000415960D96821F40041D9609B680C
:1016E0001F0449BF274B4FF4E01313604FF48013DE
:1016F0000393029B012B01D108E0FEE7022B09D1E5
:101700006168039B0B4343F4803302E0636843F456
:1017100060136360236843F0807323602168144B77
:101720008E01FBD5596821F003015960596841F0D9
:101730000201596063680E4903F00C03082BF9D1CC
:101740004868114B00F00C00042803D0082804D08E
:10175000094900E01168196022E048684D68C0F34B
:101760008340ED0300F1020012D4084916E000BFE7
:10177000001002400020024000127A0004100140D4
:1017800014000020001BB7002800002000093D00C5
:10179000496811F4003F116818BF490848431860B0
:1017A0006168C04DC1F303110A4417791A68102605
:1017B00022FA07F704221F6002238DF82F308DF8DC
:1017C0003730ADF83C208DF83F30B74AB74B4FF07B
:1017D00008080A958DF82E600C95ADF834608DF8E8
:1017E00036600E958DF83E60ADF82C80DA60E369C6
:1017F0000DEB060143F00703E361A369AC4843F432
:10180000944343F01D03A361636943F001036361E3
:10181000636A43F0807363624FF6FF73ADF8103074
:1018200000238DF81230FFF7F1F828460DEB060182
:10183000FFF7ECF80DEB06019E48FFF7E7F89E4B2B
:101840005A6842F000725A60C5F810802E610BADE4
:1018500011AE55F8040C29460835FFF7D7F8B54204
:10186000F7D105AE3046FEF719FF059B934A944D1C
:10187000B3FBF2F32B654FF47A73B7FBF3F78B4AA4
:10188000904B013FF0215F604FF0000882F8231079
:101890000722C3F808801A608B4B4FF4E1392B60A4
:1018A00005F154036B6105F5AA73AB614FF48073C6
:1018B000EB602B61854BC5F808902B63143B6B6381
:1018C000A3697B4843F48043A36102238DF817305A
:1018D0004FF40073ADF81430314618238DF81630EC
:1018E000FFF794F84FF480633146ADF81430704838
:1018F00048238DF816300AAFFFF788F80E23744C92
:101900008DF82830384601238DF829308DF82A309B
:101910008DF82B30FFF730F803232B7120460C2372
:101920003946C5F82080C5F81C80C5F82880C5F860
:101930002480C5F82C80ADF82C80ADF82E80ADF851
:101940003080ADF83480ADF83230AC64C5F8089022
:10195000CDF82890FEF7ECFEA389286B9BB243F4E8
:101960000053A381DFF8748108B3D5F80CA0D5F833
:101970001490FEF789FF2B6B1A6822F4FF4222F0C5
:10198000700242F485521A60C3F804A0C3F80880BC
:10199000C3F80C901A6842F001021A60A28A92B24F
:1019A00042F04002A2825B689BB22B6405E0494B87
:1019B00081461A6842F020021A60686B404C10B3EE
:1019C000D4F810A0FEF760FF636B1A6822F4FF42A0
:1019D00022F0700242F4845242F010021A60C3F8FE
:1019E00004A0C3F80880C3F80C901A6842F0020201
:1019F0001A6000225A605A60354B9A8A92B242F0BD
:101A000080029A8204E0334B1A6842F080021A6026
:101A10000120C5F85452FFF732F82F4BC5F8583261
:101A20000023C5F85C32FEF7CDFFD5F86032244CB8
:101A3000C01A0028C0F2D880FEF7C4FF94F86432C0
:101A400000F51C501030C4F86002002B68D1512200
:101A50008DF81420E02284F86522FF2284F86622A3
:101A6000012284F8672284F8683284F8742284F8AA
:101A7000752284F87632D4F87832C4F86C62C4F8EF
:101A80007062002B00F0B0809A88940533D41A88D5
:101A9000D0052BD447F230521988890520D5013A58
:101AA000FAD131E0000C01400005FA0500ED00E03C
:101AB00000080140001001400000014040420F00BA
:101AC0003C01002010E000E0081D00085800024022
:101AD000003801400C38014023020008043801405E
:101AE00092B11A8892B242F480721A809A8892B2A5
:101AF00042F440729A8047F2305395F8752212B141
:101B0000013BFAD100E013B9FFF7A8F804E03E4B1F
:101B100093F8760280F00100002865D001235DE093
:101B2000012B5ED1E02284F86522FF2284F8662230
:101B30000221002284F8672284F8683284F8741243
:101B400084F87532D4F87832C4F87072C4F86C72C4
:101B500084F87622002B47D09A88940515D41A88E9
:101B6000D0050DD447F230521988890502D5013AC3
:101B7000FAD113E092B11A8892B242F480721A80BC
:101B80009A8892B242F440729A8047F2305395F8A4
:101B9000752212B1013BFAD100E013B9FFF75EF8EC
:101BA00004E0194B93F8760280F00100E0B19DF853
:101BB00029309DF8280003EB0020FFF787FA0EA3D9
:101BC000D3E90023FFF7E8FA0DA3D3E90023FFF7D9
:101BD00031F9FFF7F3FC0223C5F87C0285F8643283
:101BE00002E0002384F864320848D5F87C12FEF73E
:101BF0007DFC18E7AFF30080894160E5D022F13F1A
:101C00006DE7FBA9F1D208403C010020201D00082F
:101C10001C481D49026800608A4200F01D800021B6
:101C200000F004B8194B5B58435004311848194B65
:101C300042189A42FFF4F6AF174A00F003B80023A7
:101C400042F8043B154B9A42FFF4F9AFFFF768F8EE
:101C5000FFF7DEFCFFF7FEBF114E1248306012485E
:101C6000016821F070610160410201600F4C182091
:101C700020600F490F4808600F48D0F800D0406836
:101C800000470000F04F0020EFBEADDE241D00082D
:101C9000000000202C0000202C000020BC030020AD
:101CA000181002400900000004000140140C01401B
:101CB000000C01404434434400F0FF1FFFF7FEBF17
:101CC0000000020025010008040004001F010008B4
:101CD00008000800190100080C001000110100089C
:101CE00000540040000C0140400080001F20000014
:101CF0000000200000580040000C014000040008D3
:101D00002122000000004000550800080B020008D6
:101D1000C3010008D9070008F501000821020008E6
:041D200025640A002C
:101D2400000000000102030401020304060708097D
:101D34000204060800127A000000000000000000FF
:0C1D4400010203040607080900A24A047B
:0400000508000000EF
:00000001FF
